:020000040800F2
:100000000854002471030008974A000815430008AB
:10001000954A00081B090008F1560008000000007E
:10002000000000000000000000000000B102000815
:10003000410B0008000000000D030008294E0008D5
:100040008B0300088B0300088B0300088B03000858
:100050008B0300088B0300088B0300088B03000848
:100060008B0300088B0300088B0300088B03000838
:100070008B0300088B0300088B0300088B03000828
:100080008B0300088B0300088B0300088B03000818
:100090008B0300088B0300088B0300088B03000808
:1000A0008B0300088B0300088B0300088B030008F8
:1000B0008B0300088B0300088B0300088B030008E8
:1000C0008B0300088B0300088B0300088B030008D8
:1000D000D94C00088B0300088B0300088B03000831
:1000E0008B0300088B030008000000008B0300084E
:1000F0008B0300088B0300088B0300088B030008A8
:100100008B0300088B0300088B0300088B03000897
:100110008B0300088B030008C94F00088B030008FD
:100120008B0300088B0300088B0300081D090008DF
:100130008B0300088B0300088B0300088B03000867
:1001400000000000000000000000000000000000AF
:100150008B0300088B0300088B0300088B03000847
:100160008B0300088B0300088B0300088B03000837
:100170008B0300088B0300088B03000800000000BD
:100180008B0300088B0300088B0300088B03000817
:100190008B0300088B0300088B0300088B03000807
:1001A0008B0300088B0300088B0300088B030008F7
:1001B0008B0300088B0300088B0300088B030008E7
:1001C0008B0300088B0300088B0300088B030008D7
:1001D0008B0300088B0300088B0300088B030008C7
:1001E0008B0300088B0300088B0300088B030008B7
:1001F0008B0300088B0300088B0300088B030008A7
:100200008B0300088B0300088B0300088B03000896
:100210008B0300088B0300088B0300088B03000886
:100220008B0300088B0300088B030008000000000C
:100230008B0300088B030008000000008B030008FC
:100240008B0300088B0300088B0300088B03000856
:100250008B0300088B0300088B0300088B03000846
:100260008B0300088B0300088B0300088B03000836
:100270008B0300088B0300088B03000800000000BC
:100280008B0300088B0300088B03000800000000AC
:10029000000000008B030008DFF810D000F0BCFA6B
:1002A00000480047E5600008AFF3008008540024D0
:1002B0002C4B19680868B0E8F04F80F30988BFF349
:1002C0006F8F4FF0000080F311887047000000002E
:1002D00008480068006880F308884FF0000080F349
:1002E000148862B661B6BFF34F8FBFF36F8F00DF24
:1002F00000BF00BF08ED00E0DFF80C00016841F42A
:1003000070010160704700BF88ED00E0EFF30980E5
:10031000BFF36F8F134B1A681EF0100F08BF20ED4C
:10032000108A20E9F04F106009B44FF0500080F3BC
:100330001188BFF34F8FBFF36F8F06F0CFFD4FF0E3
:10034000000080F3118809BC19680868B0E8F04F14
:100350001EF0100F08BFB0EC108A80F30988BFF3BD
:100360006F8F70472C000024EFF30580704700006A
:100370000648804706480047FEE7FEE7FEE7FEE73F
:10038000FEE7FEE7FEE7FEE7FEE7FEE7ED4E0008CC
:10039000990200082DE9F05F0546002092469B4631
:1003A00088460646814640241BE02846414647468B
:1003B000224600F069F853465A46C01A914110D3BC
:1003C00011461846224600F050F82D1A67EB010836
:1003D0004F4622460120002100F047F817EB0009A4
:1003E0004E41201EA4F10104DFDC484631462A4676
:1003F0004346BDE8F09F40EA01039B0703D009E0B4
:1004000008C9121F08C0042AFAD203E011F8013B00
:1004100000F8013B521EF9D27047D2B201E000F859
:10042000012B491EFBD270470022F6E710B5134698
:100430000A4604461946FFF7F0FF204610BD30B5C6
:100440000B46014600202022012409E021FA02F592
:100450009D4205D303FA02F5491B04FA02F528442C
:10046000151EA2F10102F1DC30BD202A04DB203A86
:1004700000FA02F1002070479140C2F1200320FAF7
:1004800003F3194390407047202A04DB203A21FAF5
:1004900002F00021704721FA02F3D040C2F120029D
:1004A00091400843194670472DE9FE4F804681EA86
:1004B0000300C00F0C46009021F0004123F00045DE
:1004C000B8EB0200A94105D24046214690461C46A1
:1004D0000B46024623F00040104347D0270DC7F3D8
:1004E0000A00C3F30A510290401A019040286BDAC7
:1004F000C3F3130040F4801B0098924620B1002300
:10050000D2EB030A63EB0B0B01985946C0F1400292
:100510005046FFF7AAFF06460D4650465946019A37
:1005200000F08CF910EB08006141002487EA1152B9
:1005300084EAE7731A4340D0009A62B3019A012A11
:100540004FEA075215DC001B61EB02014FF000423D
:1005500002EA0752CDE90042001C41F58011324603
:100560002B4600F08CF903B0BDE8F08F40462146E1
:10057000F9E7001B61EB0201001C41F58013001834
:100580005B412018A2F5001747EB030140EAD57044
:10059000B6196D4111E06D084FEA360645EAC0759F
:1005A0004FEA0752001B61EB0201001C41F580116C
:1005B00049084FEA30000019514132462B4603B03A
:1005C000BDE8F04F00F04CB9009801224000002334
:1005D000D0EB020263EBE073009821464FEAE0742F
:1005E000B8EB000061EB0401E9E783F000435BE74F
:1005F00081F0004158E72DE9FE4F81EA030404F041
:10060000004421F0004100944FF0000B23F0004320
:1006100050EA01045ED052EA03045BD0C3F30A54EB
:10062000C1F30A552C44A4F2F3340194A0FB025404
:10063000C1F3130141F48011C3F3130343F4801396
:1006400001FB024400FB034E840A970A44EA8154EA
:1006500047EA8357A4FB076802958D0A05FB0785C7
:100660004FEA932C04FB0C542705029D4FEA0658D1
:1006700047EA1637B5EB08056EEB070C870E920EAE
:1006800047EA811742EA8312A7FB0201B6EB0B018E
:1006900064EB00042B0D43EA0C335E1844EB1C5052
:1006A000DA465146E7FB0201C5F313044FEA0B3368
:1006B00043EA14534FEA0432019C43EA0603A4F1CF
:1006C0000C040294009CCDE900B400F0D8F803B00B
:1006D000BDE8F08F00200146F9E72DE9F04D81EAF1
:1006E000030404F0004B21F0004514464FF0000ACB
:1006F00023F0004150EA050220D054EA01021DD047
:10070000C5F30A570246C5F31303C1F31300C1F33F
:100710000A5640F4801543F48013A7EB0608101B1B
:10072000D64608F2FD3873EB050002D308F1010844
:1007300001E092185B41B8F1000F03DA0020014696
:10074000BDE8F08D00204FF48011064684460EE08F
:10075000171B73EB050705D3121B63EB0503064359
:100760004CEA010C49084FEA300092185B4150EA0C
:100770000107EDD152EA030012D082EA040083EAB5
:100780000501084305D0101BAB4106D2012200230E
:1007900006E000224FF0004302E06FF00102531028
:1007A0001AEB06004CEB085110EB0A0041EB0B0171
:1007B000BDE8F04D00F054B8C1F30A52C1F3130183
:1007C00040F2FF3341F480119A4202DA00200146E0
:1007D000704740F233439A42A2F2334202DC524263
:1007E000FFF752BEFFF741BE30B5041E71F10004A1
:1007F00004DB4FF00044404264EB0101141E73F12E
:10080000000405DB1C464FF00043524263EB040337
:10081000994208BF904230BD064C074D06E0E068A3
:1008200040F0010394E8070098471034AC42F6D337
:10083000FFF736FD087A0008287A0008202A06DB30
:10084000CB17203A41FA02F043EAE07306E041FA9E
:1008500002F3D040C2F1200291400843194670478C
:1008600010B5141E73F1000408DA401C41F10001B8
:1008700092185B411A4301D120F0010010BD2DE90F
:10088000F04D92469B4611B1B1FA81F202E0B0FA06
:1008900080F220329046FFF7E8FD04460F4640EA1A
:1008A0000A0041EA0B0153465A46084313D0114649
:1008B00053EA010019D0C8F140025046FFF7E4FDA9
:1008C00005460E46504659464246FFF7CEFD0843C0
:1008D00005D0012004E020463946BDE8F08D002017
:1008E000054346EAE0762C4337430A986305E40A59
:1008F000A0EB08000022FD0A44EA47540A3002D562
:1009000000200146E9E7010510196941DDE90845C4
:1009100000196941BDE8F04DA2E7FEE7014800F08B
:1009200055BA00008C010024294A016891423AD04E
:10093000274A1832914236D0254A3032914232D07D
:10094000234A483291422ED0214A603291422AD025
:100950001F4A7832914226D01D4A9032914222D0CD
:100960001B4AA83291421ED01A4A91421BD0194A02
:100970001832914217D0174A3032914213D0154A9B
:10098000483291420FD0134A603291420BD0114A43
:100990007832914207D00F4A9032914203D00D4AEB
:1009A000A832914211D1CAB21823103AB2FBF3F225
:1009B0006FF30901032A02F00703074AD25CC265FC
:1009C00000D9091D81650846704721F0FF01F9E74C
:1009D00010000240100402409079000830B5224A0D
:1009E000012301689142CAB21BD01F4C1434A142AA
:1009F00017D01D4C2834A14213D01B4C3C34A142CB
:100A00000FD0194C5034A1420BD0174C6434A14282
:100A100007D0154C7834A14203D0134C8C34A1423A
:100A20000CD11421114C083AB2FBF1F10F4A80327B
:100A300001F01F0504EB8101AB4010E00C4D1824C0
:100A4000103A0D44B2FBF4F1A82D00D80831094A40
:100A500001F01F0402EB8101064AA340803260309E
:100A600080E80E0030BD00000854025800580258BB
:100A7000F0FBFDBF0008024010B50279531E072BA2
:100A80002DD8174C0168A1421BD0154C1434A1423B
:100A900017D0134C2834A14213D0114C3C34A1423E
:100AA0000FD00F4C5034A1420BD00D4C6434A142F6
:100AB00007D00B4C7834A14203D0094C8C34A142AE
:100AC00003D10849074C443102E00749064C443140
:100AD00004EB8202C0E91B2101219940416710BD4E
:100AE00008540258FC580258FC08024010B58369AB
:100AF0004FF0C074826A0146002053B1B3F5005F25
:100B000015D072B1012A0CD0022A0AD0032A09D1C9
:100B100004E01AB1012A06D0022A03D1C96AC90128
:100B200000D5012010BDC96AA142FAD010BD002A2B
:100B3000F7D0012AF2D0022AF3D0032AF3D010BD55
:100B4000704772B6FEE700002DE9F05F28B190F81B
:100B50003510022904D0802141650120BDE8F09FB5
:100B6000904C904B0168183C18338E4ADFF83C9249
:100B7000A1428D4CDFF838E28E4FDFF83CB2DFF84F
:100B80003CA28F4D8F4E31D091422FD099422DD023
:100B9000A1422BD0494529D0714527D0B94225D053
:100BA000DFF810C20CF1180C61451FD0DFF808C245
:100BB000ACF1600C614519D0DFF8FCC1ACF1480C18
:100BC000614513D0DFF8F0C1ACF1300C61450DD0B8
:100BD000DFF8E4C1ACF1180C614507D0594505D0E8
:100BE000514503D0A94201D0B1422CD1DFF8B4C1A4
:100BF0004FF0040880F83580ACF1180C61451DD029
:100C000091421BD0994219D0A14217D0494515D025
:100C1000714513D0B94211D06648183081420DD0C9
:100C200065486038814209D063484838814205D020
:100C300061483038814201D05F481838086820F098
:100C400001000860ABE0D1F800C02CF00E08DFF81E
:100C500054C1C1F80080ACF1180C0168614527D07F
:100C6000914225D0994223D0A14221D049451FD09D
:100C700071451DD0B9421BD0DFF838C10CF1180CFA
:100C8000614515D0DFF830C1ACF1600C61450FD083
:100C9000DFF824C1ACF1480C614509D0DFF818C178
:100CA000ACF1300C614503D0DFF80CC1ACF1180C8D
:100CB000D1F800C02CF0010CC1F800C0DFF8E480CE
:100CC0004FF0010C0168A8F11808414546D0914247
:100CD00044D0994242D0A14240D049453ED07145CE
:100CE0003CD0B9423AD0334A1832914236D0324AD7
:100CF000603A914232D0304A483A91422ED02E4A40
:100D0000303A91422AD02C4A183A914226D059457D
:100D100024D0514522D0A94220D0B1421ED02A4A27
:100D200091421BD0284A1432914217D0264A2832C9
:100D3000914213D0244A3C3291420FD0224A503281
:100D400091420BD0204A6432914207D01E4A783239
:100D5000914203D01C4A8C32914218D1016E0A682C
:100D600022F480720A6090F85C20816D02F01F020C
:100D70000CFA02F24A60D0E919124A60C16E31B130
:100D80000A6822F480720A60D0E91C124A600022CC
:100D9000016D80F835C080F8342001B1884700200B
:100DA000DCE60000280002405800024070000240CB
:100DB00088000240A0000240700402408804024003
:100DC000A0040240B8040240085402582DE9FC5F18
:100DD0000446F74E0020DFF8D88300904FF41652F7
:100DE000F44808F11808A56DDFF8C493DFF8C0A334
:100DF000016809F1300920680AF1480AB1FBF2F1F3
:100E0000B04201912F68D5F800C0DFF8ACB335D0FF
:100E10004146884232D0484530D050452ED05845C2
:100E20002CD0E5491831884228D0E3493031884236
:100E300024D0E1494831884220D0E04988421DD081
:100E4000DE491831884219D0DC493031884215D04A
:100E5000DA494831884211D0DFF860E30EF1600EC4
:100E600070450BD0D54A7832904207D0D34B90339F
:100E7000984203D0D149A83188427DD194F85C20B2
:100E8000082102F01F0201FA02F23A424AD0B042AF
:100E900032D0404530D048452ED050452CD0584512
:100EA0002AD0C54A1832904226D0C34A30329042E6
:100EB00022D0C14A483290421ED0C04A90421BD034
:100EC000BE4A1832904217D0BC4A3032904213D0FA
:100ED000BA4A483290420FD0B84A603290420BD0A2
:100EE000B64A7832904207D0B44A9032904203D04A
:100EF000B24AA832904203D1026802F0040202E032
:100F0000026802F008026AB1026822F0040202607C
:100F100094F85C0000F01F008140A960606D40F013
:100F20000100606594F85C00012100F01F00814021
:100F3000394240D02068B04234D0404532D0484594
:100F400030D050452ED058452CD09B4A1832904274
:100F500028D0994A3032904224D0974A4832904261
:100F600020D0964A90421DD0944A1832904219D00F
:100F7000924A3032904200E0AFE113D08F4A4832BB
:100F800090420FD08D4A603290420BD08B4A78321B
:100F9000904207D0894A9032904203D0874AA832C3
:100FA00090427DD1406910F0800F04D0A960606D3F
:100FB00040F00200606594F85C00042100F01F001E
:100FC000814039423ED02068B04232D0404530D0D6
:100FD00048452ED050452CD058452AD0764A183254
:100FE000904226D0744A3032904222D0724A48321F
:100FF00090421ED0714A90421BD0704A18329042E3
:1010000017D06E4A3032904213D06C4A4832904228
:101010000FD06A4A603290420BD0684A78329042D0
:1010200007D0664A9032904203D0644AA832904278
:101030004ED1006810F0020F04D0A960606D40F03E
:101040000400606594F85C00102100F01F008140EE
:10105000394258D02068B04234D0404532D048455B
:1010600030D050452ED058452CD0534A183290429B
:1010700028D0514A3032904224D04F4A48329042D0
:1010800020D04E4A90421DD04C4A1832904219D07E
:101090004A4A3032904215D0484A4832904200E0E5
:1010A00014E00FD0454A603290420BD0434A783268
:1010B000904207D0414A9032904203D03F4AA83232
:1010C000904207D1006800F0080006E0006872E76F
:1010D0000068B7E7006800F00400A0B1A9602068CC
:1010E0000168490304D50068000308D5A16C07E036
:1010F0000168C90503D4016821F008010160216C71
:1011000009B12046884794F85C00202100F01F00B8
:101110008140394279D02068B04232D0404530D049
:1011200048452ED050452CD058452AD0224A183256
:10113000904226D0204A3032904222D01E4A483275
:1011400090421ED01D4A90421BD01C4A1832904239
:1011500017D01A4A3032904213D0184A483290427F
:101160000FD0164A603290420BD0144A7832904227
:1011700007D0124A9032904203D0104AA8329042CF
:1011800003D1006800F0100002E0006800F00200E7
:10119000B0B3A96094F835000428206801680FD026
:1011A00049037ED5006800032BD4616C2AE000005F
:1011B0001000024018000024700002401004024099
:1011C00021F0160101602068416921F08001416130
:1011D000206C08B9A06C20B12068016821F00801DA
:1011E000016094F85C303F21012003F01F030022CE
:1011F0009940A96084F8350084F83420216D65E0B9
:1012000003E0E16B09B120468847606D00287DD07E
:10121000606DC00759D02068042184F83510B042B1
:101220002BD0404529D0484527D0504525D058459A
:1012300023D09D49884220D09B49183188421CD038
:1012400099493031884218D09849884215D0974939
:101250001831884211D09549303188420DD09349D8
:101260004831884209D091496031884205D08F4980
:101270007831884201D08D499031016821F0010117
:10128000016020680099019A491C0091914202D89E
:101290000168C907F6D10068C00710D003200FE02D
:1012A000FFE70168C905ACD403680121002223F0DF
:1012B0001003036084F8351084F83420A1E701207E
:1012C00084F83500002084F83400E16C00291DD03A
:1012D00002B02046BDE8F05F0847754988421DD03E
:1012E00073491431884219D071492831884215D088
:1012F0006F493C31884211D06D49503188420DD040
:101300006B496431884209D0694900E084E0783152
:10131000884203D066498C3188427DD194F85C8044
:101320000427016808F01F0807FA08F717EA0C0FEE
:10133000009746D04F0744D500980F04686003D546
:10134000C8033CD4A16CC1E7880638D42068B042F9
:101350002DD055496039884229D0484527D050457D
:1013600025D0584523D05049884220D04E491831C5
:1013700088421CD04C493031884218D04B498842B1
:1013800015D04A491831884211D048493031884235
:101390000DD046494831884209D0704507D0904267
:1013A00005D0984203D04149A831884203D1016851
:1013B00021F0080102E0016821F004010160216CC4
:1013C00084E7022707FA08F717EA0C0F00974ED0B8
:1013D0008F074CD500980F04686003D5C80344D428
:1013E000616C73E7880640D42068B0422FD02E4944
:1013F000603988422BD0484529D0504527D05845E0
:1014000025D02949884222D02749183188421ED048
:1014100025493031884200E044E018D02349884211
:1014200015D022491831884211D0204930318842E4
:101430000DD01E494831884209D0704507D09042EE
:1014400005D0984203D01949A831884203D10168D8
:1014500021F0140102E0016821F00A01016001217C
:1014600084F83510002084F83400E16B2EE7082260
:1014700002FA08F212EA0C0F14D0090712D501681B
:1014800021F00E01016094F85C100120002201F0AF
:101490001F0100FA01F16960606584F8350084F885
:1014A000342012E7BDE8FC9F88000240100402408F
:1014B000085402582DE9F05F044600F011FB002C9F
:1014C00007467DD0E34E022120684FF00308DFF885
:1014D00088934FF00005DFF884A3B042DFF880B3B3
:1014E00034D0DC4A1832904230D048452ED0504596
:1014F0002CD058452AD0DA4A1832904226D0D84A01
:101500003032904222D0D64A483290421ED0D54A3C
:1015100090421BD0D34A1832904217D0D14A303271
:10152000904213D0CF4A483290420FD0CD4A603219
:1015300090420BD0CB4A7832904207D0C94A9032C1
:10154000904203D0C74AA83290427DD184F835102A
:10155000B04284F834502ED0BE49183188422AD087
:10156000484528D0504526D0584524D0BC4918318C
:10157000884220D0BA49303188421CD0B84948311D
:10158000884218D0B749884215D0B64918318842E8
:1015900011D0B449303188420DD0B2494831884227
:1015A00009D0B0496031884205D0AE4978318842CF
:1015B00001D0AC499031016821F00101016008E0DF
:1015C00027E100BF00F08CFAC01B052801D92021BB
:1015D0001CE120680068C007F4D104F1080021680C
:1015E000D4E9053C8E4685C809681043D4E907282C
:1015F0001F43636A38439C4F40EA0C001043394054
:1016000040EA0800042B40EA010003D1D4E90B12A0
:1016100011430843954909686FF30F01B1F1005F69
:101620000FD36168A1F12902052A08D9163A032AC5
:1016300005D9083A012A02D94F39032901D840F4C3
:101640008010CEF8000000E023E02068676A40695F
:10165000042F20F0070047EA00070DD1D4E90A0162
:10166000074349B12046FFF741FA28B140206065A1
:10167000012184F83510CCE0206847612046FFF74F
:1016800053F994F85C203F2102F01F0291408160E1
:1016900054E0774A90421BD0754B1433984217D0D0
:1016A000734B2833984213D0714B3C3398420FD080
:1016B0006F4B503398420BD06D4B6433984207D038
:1016C0006B4B7833984203D0694B8C3398427DD171
:1016D00084F8351084F83450664B0168A26801EA3A
:1016E000030E402A73D0802A72D00022D4E90378F6
:1016F000D4E9053142EAD70242EAD8085C4AD4E983
:10170000077C48EAD30848EAD10141EAD7015242AE
:1017100041EA1C11142341EA0E01016020681044C3
:10172000B0FBF3F08000E0652046FFF7FDF894F889
:101730005C20012102F01F02914041602068B0420C
:1017400057D044491831884253D0484551D050456C
:101750004FD058454DD042491831884249D0404970
:101760003031884245D03E494831884241D03D49D8
:1017700088423ED03B49183188423AD0394930310D
:10178000884236D037494831884232D035496031B5
:1017900088422ED03349783188422AD0314990315D
:1017A000884226D02F49A831884222D03049884229
:1017B0001FD02F49143188421BD02D49283188422F
:1017C00017D02B493C31884213D002E01DE017E0CE
:1017D00018E02749503188420BD0254964318842AE
:1017E00007D023497831884203D021498C3188427F
:1017F00029D12046FFF7F2F8A06880280CD00CE031
:10180000102273E74FF4804270E74021616584F84D
:1018100035800120BDE8F09F6560216E2079086069
:10182000D4E9190141606068401E072808D82046A5
:10183000FFF722F9E06E0560D4E91C01416002E087
:10184000E566256765670120656584F83500002039
:10185000E0E7000010000240400002405800024053
:1018600070000240100402403F8010FE0010005C37
:10187000085402580F00FEFF70B5044600F030F91E
:101880000546601C02D004480078044400F028F9A2
:10189000401BA042FAD370BD0C0000242DE9F84F84
:1018A00003247D4D00234FF001094FF0B04B4FF062
:1018B0000F0AE9E009FA03F73A4076D00E7906F00C
:1018C0000306012E01D0022E18D1D0F808C04FEA2D
:1018D000430ECE6804FA0EF82CEA080C06FA0EF64F
:1018E00046EA0C068660D0F804C00E792CEA070C94
:1018F000C6F300169E4046EA0C0646600E79F64393
:10190000B6070BD0C6684FEA43088F6804FA08FC94
:1019100026EA0C0607FA08F73743C7600E7906F087
:101920000306022E12D1DE080F694FEA437C00EB5A
:101930008606B646366A4FEADC6C0AFA0CF807FAF5
:101940000CF726EA08063743CEF820700F790668B0
:101950004FEA430807F0030704FA08FC07FA08F700
:1019600026EA0C06374307604E6816F4403F1CD049
:101970004A4E376847F00207376036689F0706F01F
:101980000206009623F0030606F1B046B6463F0F66
:10199000D6F80864DFF808810AFA07FC404526EA11
:1019A0000C0603D14FF0000C41E06CE0DFF8F4C00E
:1019B000604502D14FF0010C39E0DFF8ECC0604522
:1019C00002D14FF0020C32E0DFF8E0C0604502D1F6
:1019D0004FF0030C2BE0DFF8D8C0604502D14FF088
:1019E000040C24E0DFF8CCC0604502D14FF0050CB8
:1019F0001DE0DFF8C4C0604502D14FF0060C16E0D0
:101A0000DFF8B8C0604502D14FF0070C0FE0DFF8F7
:101A1000B0C0604502D14FF0080C08E0DFF8A4C068
:101A2000604502D14FF0090C01E04FF00A0C0CFAAE
:101A300007FC4CEA060CCEF808C44F68DBF80060DF
:101A4000FF0226EA020600D516435F46CBF8006087
:101A5000D1F804C0DBF804605FEA8C2C26EA0206A9
:101A600000D516437E606E684F6826EA0206BF0303
:101A700000D516436E602E684F6826EA0206FF0303
:101A800000D516432E605B1C0A6832FA03F67FF419
:101A900011AFBDE8F88F000080000058F4440258F0
:101AA000000002580004025800080258000C0258B6
:101AB000001002580014025800180258001C025866
:101AC00000200258002402580AB1816170470904BD
:101AD000FBE7000001480068000C70470010005C44
:101AE00001488068704700000C00002430B590F871
:101AF0004120202A24D190F84020012A20D001231F
:101B000080F84030242280F84120202300240268FD
:101B1000156825F0010515600268156825F48055E3
:101B20001560026815680D43156001680A6842F087
:101B300001020A6080F8413080F84040002030BD4A
:101B4000022030BD30B590F84120202A22D190F8F3
:101B50004020012A1ED0012380F84030242280F842
:101B60004120202400250268136823F0010313603C
:101B70000268136823F4706343EA0121116001686D
:101B80000A6842F001020A6080F8414080F8405043
:101B9000002030BD022030BD70B5040004D094F8A0
:101BA0004100002510B106E0012070BD204684F8F8
:101BB000405000F02FFA242084F84100206801688A
:101BC00021F001010160D4E9001020F0706008618B
:101BD0002068816821F400418160E0682168012863
:101BE000A06830D040F404408860E0680228206893
:101BF00041682BD021F40061416020682021154A02
:101C00004368134343602068C26822F40042C26004
:101C100054F8106B0DCC104340EA0320F06054F8E8
:101C20001C3CD4E900021043186054F81C0D0268F3
:101C300042F001020260656484F84110256384F873
:101C40004250002070BD40F40040CDE741F40061F7
:101C5000D2E70000008000022DE9FC470025044681
:101C60001E4692460195894690F84100202868D189
:101C700020688069C043000463D594F840000128BF
:101C80005FD0012184F8401024204FF0200884F810
:101C900041006564E06801280BD02B4A2B4900BF46
:101CA00049EA0200084021684860FFF719FF07462B
:101CB0000AE0274A2749F3E7701C05D0FFF710FF19
:101CC000C01BB04219D8C6B1206881698269C1F3CE
:101CD0004010C2F300110843EED0206880693346FB
:101CE0004FF000024FF02001C0430097C00620468D
:101CF00016D502F025FCB0B908E084F84180606C8C
:101D000084F8405040F0200060640CE02168C1F885
:101D10001C8084F84180002084F84050BDE8FC8796
:101D200002F00EFC08B10120F8E722681021D16111
:101D30002168C1F81C800198401C01905045A9D32E
:101D4000DBE70220EAE7000000280002FF2B000288
:101D500000200002FF2300022DE9FF4F83B004465C
:101D600090F841009A469346DDE91087DDF84890E7
:101D7000202874D15FEA080014D09FB194F8400085
:101D800001286CD0012084F84000FFF7A9FE012251
:101D9000064619230090D103204602F0D1FB00280B
:101DA00071D103E04FF4007060646CE00025C4F86A
:101DB0002480222184F84110402084F84200656488
:101DC0006785534665635A4604992046CDE90096D7
:101DD00002F03AFB10B184F8405054E0618DFF27C7
:101DE00034484FF08078FF294FF0007A04D92785D6
:101DF0003A464346009005E0618D534621850090A8
:101E000094F828202046049902F082FB00224B46D9
:101E100004212046009602F093FBA0BB2068616A73
:101E2000406A0870606A401C6062208D401E81B26A
:101E30002185608D401E6085608DD8B1D1B90022AA
:101E40004B4680212046009602F07AFBD8B9608D7F
:101E5000FF2805D927853A464346009506E026E047
:101E6000608D53462085009594F8282020460499DB
:101E700002F04EFB608D0028C8D13246494620460C
:101E800002F09CFB18B1012007B0BDE8F08F21687B
:101E90002020094AC86121684B6813404B6084F8D0
:101EA000410084F84250002084F84050ECE70220C2
:101EB000EAE700000024008000E800FE2DE9FF4F63
:101EC00083B0044690F841009A469346DDE91087B6
:101ED000DDF84890202871D15FEA080014D09FB146
:101EE00094F84000012869D0012084F84000FFF7F1
:101EF000F7FD0122064619230090D103204602F087
:101F00001FFB00286ED103E04FF40070606469E0AD
:101F10000025C4F82480212184F84110402084F851
:101F2000420065646785534665635A4604992046B6
:101F3000CDE9009602F0BAFA10B184F8405051E0B1
:101F4000608DFF274FF08078FF284FF0007A04D98A
:101F500027853A464346009505E0608D5346208527
:101F6000009594F828202046049902F0D1FA3246D0
:101F70004946204602F04EFBA0BB606A216800780B
:101F80008862606A401C6062608D401E6085208DA2
:101F9000401E80B22085618DD9B1D0B900224B4658
:101FA00080212046009602F0CBFAD8B9608DFF2838
:101FB00005D927853A464346009506E026E0608D20
:101FC00053462085009594F828202046049902F075
:101FD0009FFA608D0028CAD132464946204602F059
:101FE000EDFA18B1012007B0BDE8F08F206820217C
:101FF000074AC161206843681340436084F8411078
:1020000084F84250002084F84050ECE70220EAE7D0
:1020100000E800FE10B5B6B00446142130A8FEF763
:1020200003FAC0216846FEF7FFF918492068884284
:102030002AD10020219008210446CDE900106846ED
:1020400000F0C6FA08B1FEF77CFD1148016841F0C6
:1020500002010160006830AB122100F002003590EF
:10206000C020042283E813000A4830A9CDE9334296
:10207000FFF714FC06480830016841F400110160C4
:10208000006800F40010359036B010BD00540040D8
:10209000E044025800040258024881680278114462
:1020A000816070470C000024032010B500F0FEF89A
:1020B00001F006F90F4A104914681368C4F30322AB
:1020C00003F00F038A5CC95C02F01F0201F01F01DC
:1020D000D0400A4A20FA01F11160094908600F2036
:1020E00000F010F808B1012010BD00F09FF80020AA
:1020F00010BD000018440258C07900081C000024DC
:102100001800002410B5102804468AB02CD20022F2
:102110000146362000F0AAF8362000F099F817485A
:1021200004601748016841F010010160006809A9C6
:1021300000F010000890684601F04EF80598B0B124
:1021400001F09AF840000F4900220F4CB0FBF1F16A
:102150000E4840F2E7330460C0E90332491EC0E98B
:10216000011201F06FFE28B101200AB010BD01F08C
:1021700083F8E8E7054801F097FEF6E71000002431
:10218000E844025840420F0000100040980200242A
:10219000154BF0B5083B427813491A600B680A1FCB
:1021A00023F001030B6043681360057BC67A827AD3
:1021B000437B2D07847B45EA0665C77B90F809C001
:1021C000067A90F800E045EAC24040EA834040EADF
:1021D000444040EA074040EA0C2040EA460040EA1A
:1021E0000E000860F0BD0000A0ED00E0BFF35F8FBF
:1021F000044800210368034A23F4803303607032EB
:102200001160704724ED00E0074A40F001000649E4
:1022100070321060086840F480300860BFF34F8F60
:10222000BFF36F8F7047000024ED00E0074882B0D5
:10223000016841F002010160006800220F2100F0F6
:1022400002000090901E02B000F010B8F444025852
:10225000002809DB410900F01F028900012001F17B
:10226000E0219040C1F80001704700000E4BF0B42F
:102270001B680D46C3F30223C3F10706042E00D9E1
:102280000426191D072901D2002300E0DB1E0124CA
:1022900004FA06F19C40491E2940641E99401440EE
:1022A0002143F0BC03F036BA0CED00E0064900F023
:1022B000070210B54FF6FF040868044B204040EABF
:1022C00002201843086010BD0CED00E00000FA0584
:1022D000134970B50A68D243520705D5096801F061
:1022E0000701814213D118E00A6822F00702024375
:1022F0000A60FFF7F5FB0A4D4FF47A760446083D75
:1023000007E000BFFFF7ECFB001BB04201D9012042
:1023100070BD2868C0438004F4D4002070BD000064
:102320000C48025810B500F085FF05490968054AB8
:10233000C1F30211515C01F01F01C84010BD000043
:1023400020440258C0790008494930B5484C0B1D5B
:102350000A68143409681D68246802F00303C5F391
:102360000012C1F30531C4F3CC04002914FB02F2BE
:1023700000EE102AF8EE400A75D03F4A9FED3D1A54
:10238000B7EE000A6BB1DFED3D1A012B01D0022B35
:1023900064D002EE101A1168F8EE422A81EEA22AE9
:1023A00021E0334C283C23689B0612D5344B24682B
:1023B00001EE901A1168C4F3C104F8EE612AE340FB
:1023C00001EE903AC1F30801F8EE611A81EEA22AFB
:1023D0000BE001EE901ADFED2B2A00BFF8EE611A38
:1023E000116882EEA12AC1F3080101EE901A11686A
:1023F000F8EE611A40EE811A71EE800A62EE200A50
:10240000C1F3462101EE101AB8EE411A31EE001A5E
:10241000C0EE811ABCEEE11A80ED001A1168C1F31A
:10242000064101EE101AB8EE411A31EE001AC0EE64
:10243000811ABCEEE11A80ED011A1168C1F3066140
:1024400001EE101AB8EE411A31EE000A80EE801A41
:10245000BCEEC10A80ED020A30BD04E001EE901A24
:10246000DFED092ABAE70021016041608160F3E7EE
:102470002844025800000039384402580024744AA5
:102480000090D0030024744C001BB74B494930B571
:10249000484C0B1D0A681C3409681D68246802F04A
:1024A0000303C5F30022C1F30551C4F3CC04002992
:1024B00014FB02F200EE102AF8EE400A75D03F4AF3
:1024C0009FED3D1AB7EE000A6BB1DFED3D1A012B0F
:1024D00001D0022B64D002EE101A1168F8EE422AE5
:1024E00081EEA22A21E0334C283C23689B0612D5BA
:1024F000344B246801EE901A1168C4F3C104F8EE5D
:10250000612AE34001EE903AC1F30801F8EE611A46
:1025100081EEA22A0BE001EE901ADFED2B2A00BF1C
:10252000F8EE611A116882EEA12AC1F3080101EEEA
:10253000901A1168F8EE611A40EE811A71EE800A65
:1025400062EE200AC1F3462101EE101AB8EE411ADC
:1025500031EE001AC0EE811ABCEEE11A80ED001ACD
:102560001168C1F3064101EE101AB8EE411A31EEBE
:10257000001AC0EE811ABCEEE11A80ED011A116852
:10258000C1F3066101EE101AB8EE411A31EE000AED
:1025900080EE801ABCEEC10A80ED020A30BD04E074
:1025A00001EE901ADFED092ABAE7002101604160CF
:1025B0008160F3E728440258000000394044025883
:1025C0000024744A0090D0030024744C001BB74BC5
:1025D0002DE9FE4F0546DFF8E48350F8081B002480
:1025E000F64FC943019005F12800264608F124085A
:1025F000009008011DD4A86E50B1B0F5801F0CD01A
:10260000B0F5001F0ED0B0F5401F1ED001240FE022
:10261000386840F40030386017E00198022102F079
:102620003BFA03E00098022102F0C6FA04000CD045
:1026300026462888C043C00523D4A86D05281ED28D
:10264000DFE800F00C11161B1B00AA6ED8F8001072
:1026500021F440111143C8F80010EAE7386840F44B
:102660000030386009E00198002102F015FA03E01B
:102670000098002102F0A0FA044674B100E00124A1
:1026800026462888C043800528D4E86D80281ED0BF
:102690000CDC90B140280ED114E0AA6DD8F80010DF
:1026A00021F007011143C8F80010EAE7C02813D051
:1026B000B0F5807F10D001240FE0386840F400307E
:1026C000386009E00198002102F0E6F903E0009883
:1026D000002102F071FA04469CB126462888DFF8F2
:1026E000DC92C04309F12C0940052CD4D5F8A80090
:1026F000B0F5800F20D00DDCA0B1B0F5001F0FD1D8
:1027000015E0EA6DD8F8001021F4E0711143C8F823
:102710000010E3E7B0F5C00F13D0B0F5000F10D0F4
:1027200001240FE0386840F40030386009E0019877
:10273000002102F0B1F903E00098002102F03CFA18
:1027400004467CB126462888C04300052DD4D5F820
:10275000AC00B0F1007F21D00EDCA8B1B0F1807FD9
:1027600010D116E0D5F8A820D9F8001021F46001A6
:102770001143C9F80010E6E7B0F1407F13D0B0F183
:10278000806F10D001240FE0386840F400303860CA
:1027900009E00198002102F07FF903E00098002190
:1027A00002F00AFA044674B126462868C043800144
:1027B0001FD4E86CD8B110280FD0202812D03028B0
:1027C00015D0012414E0D5F8AC20D9F8001021F080
:1027D000E0611143C9F80010E7E7386840F40030C1
:1027E000386004E00198022102F056F9044674B101
:1027F00026462888C043C0042BD4286EB0F5005F5D
:1028000020D00DDCA0B1B0F5805F0FD115E06B4892
:10281000EA6C2030016821F0300111430160E8E7E3
:10282000B0F5405F13D0B0F5804F10D001240FE019
:10283000386840F40030386009E00198002102F067
:102840002BF903E00098002102F0B6F904468CB1A0
:1028500026462888C043800429D4686EB0F5403FDE
:1028600023D010DC08B3B0F5803F14D0B0F5003FA2
:102870000FD115E02A6ED8F8001021F4E041114381
:10288000C8F80010E5E7B0F5802F0ED0B0F5A02F06
:102890000BD001240AE00198012102F0FDF803E0C9
:1028A0000098012102F088F9044694B12646288850
:1028B000C04340042AD4D5F8B000B0F1405F23D023
:1028C00010DC08B3B0F1805F14D0B0F1005F0FD11D
:1028D00015E06A6ED8F8001021F4E0211143C8F821
:1028E0000010E4E7B0F1804F0ED0B0F1A04F0BD054
:1028F00001240AE00198012102F0CEF803E00098DB
:10290000012102F059F9044674B126462888C043D3
:1029100000041FD4286FD8B1B0F1805F0ED0B0F1A1
:10292000005F10D0012414E0D5F8B020D9F80010D1
:1029300021F0E0411143C9F80010E7E7386840F49E
:102940000030386004E00198012102F0A5F8044647
:1029500074B126462868C043C0011ED4A86CD0B10B
:1029600001280ED0022811D0032814D0012413E02E
:102970002A6FD8F8001021F040511143C8F8001018
:10298000E8E7386840F40030386004E0019802213C
:1029900002F082F80446ACB126462868DFF81CB085
:1029A000C043ABF11C0B400252D40548016841F40E
:1029B00080710160FFF794F8824611E02C440258C0
:1029C00000480258FA48AA6C016821F0030111433B
:1029D0000160E2E7FFF784F8A0EB0A00642835D82D
:1029E000F4480068C005F5D58CBBDFF8C4A3B5F882
:1029F000B4100AF1240ADAF8000001F4407100F47E
:102A00004070884211D0DAF80010DAF8002021F482
:102A1000407142F48032CAF80020DAF8002022F433
:102A20008032CAF80020CAF80010D5F8B400B0F51A
:102A3000807F1AD1FFF754F8029012E0FFF750F8A8
:102A40000299411A41F2883081420AD9032426466C
:102A50002878DFF85CA3C0430AF1080AC00721D038
:102A60003CE0DAF800008007E8D5D5F8B410C1F3EF
:102A70000120032858460DD0016821F47C510160E3
:102A8000B5F8B420DAF80010C2F30B021143CAF80B
:102A90000010DDE7C84A036802EA111223F47C51F2
:102AA0001143ECE7E86F182816D005DCA0B1082820
:102AB00008D0102804D10AE020280DD028280BD0F7
:102AC00001240AE00198012101F0E6FF03E00098EB
:102AD000012102F071F8044664B126462878C0430B
:102AE00080071ED4A86F062819D2DFE800F0160C64
:102AF00011161616EA6FDAF8001021F038011143AA
:102B0000CAF80010EAE70198012101F0C5FF03E0CF
:102B10000098012102F050F804467CB100E0012445
:102B200026462878C04340071FD4D5F894000628CD
:102B300019D2DFE800F0160C11161616AA6FDAF893
:102B4000001021F007011143CAF80010E9E70198CD
:102B5000012101F0A1FF03E00098012102F02CF80F
:102B60000446A4B100E0012426462878C04380062C
:102B70002BD4D5F89000B0F1405F24D011DC10B315
:102B8000B0F1805F15D0B0F1005F10D116E0D5F83C
:102B90009420D9F8001021F007011143C9F8001062
:102BA000E3E7B0F1804F0ED0B0F1A04F0BD001247D
:102BB0000AE00198002101F06FFF03E00098022174
:102BC00001F0FAFF044694B126462878C043400637
:102BD0002BD4D5F89C00B0F5406F24D011DC10B395
:102BE000B0F5806F15D0B0F5006F10D116E0D5F8B4
:102BF0009020DAF8001021F0E0411143CAF80010EB
:102C0000E3E7B0F5805F0ED0B0F5A05F0BD00124F4
:102C10000AE00198002101F03FFF03E00098022143
:102C200001F0CAFF044694B126462878C043000646
:102C30002BD4D5F8A000B0F5C04F24D011DC10B3D0
:102C4000B0F5005F15D0B0F5804F10D116E0D5F883
:102C50009C20D9F8001021F4E0511143C9F800106C
:102C6000E3E7B0F5004F0ED0B0F5204F0BD00124B4
:102C70000AE00198002101F00FFF03E00098022113
:102C800001F09AFF044654B126462878C043000755
:102C90001ED4D5F88400B0F5805F0AD00FE0D5F8D7
:102CA000A020D9F8001021F460411143C9F80010A8
:102CB000EBE70098022101F07FFF00B10126D5F873
:102CC0008420DAF8001021F440511143CAF80010B2
:102CD0002878C043C00613D4D5F89800B0F5807F9B
:102CE00005D10098022101F067FF00B10126D5F857
:102CF0009820D9F8001021F440711143C9F8001050
:102D00002868C043000316D4D5F8A40038B1B0F544
:102D1000803F09D0B0F5003F0BD001240AE00198B4
:102D2000002101F0B9FE03E00098022101F044FF08
:102D300004468CB126462868C043400322D4D5F807
:102D40008800B0F5801F11D0B0F5001F13D0B0F58A
:102D5000401F15D0012414E0D5F8A420D9F80010A4
:102D600021F440311143C9F80010E4E7386840F419
:102D70000030386004E00098012101F01DFF044696
:102D80005CB126462868C043C00323D4286DA8B18F
:102D9000B0F5803F17D001241BE0D5F88820DAF881
:102DA000001021F440111143CAF80010EAE70000B6
:102DB0004C44025800480258CFFFFF00386840F4E6
:102DC0000030386004E00198022101F065FE0446FD
:102DD000E4B126462868C043800005D4009802214B
:102DE00001F0EAFE00B101262868C04380031BD42D
:102DF000D5F88000B0B1B0F5807F0FD0B0F5007F7E
:102E000010D0B0F5407F0DD001240CE05A482A6D57
:102E1000016821F4803111430160DBE7386840F438
:102E200000303860ECB326462868C043C00207D49F
:102E30006A6FD8F8001021F000411143C8F8001063
:102E40002868C043C00008D4D5F8B820DBF80010CB
:102E500021F480411143CBF800102868C043800260
:102E600007D4EA6ED8F8001021F080711143C8F839
:102E700000102868C04340000CD4DBF8001021F497
:102E80000041CBF80010DBF80010D5F8BC2011434E
:102E9000CBF800102868C04308D437486A6D016831
:102EA00000E018E021F04051114301602868C04360
:102EB000000208D4D5F88C20DAF8001021F4400183
:102EC0001143CAF8001028790024C04300F0010023
:102ED00020430AD00FE0D5F88020DAF8001021F462
:102EE00040711143CAF800109EE70198002101F0DB
:102EF000D3FD00B106462879C04300F0020020430C
:102F000005D10198012101F0C7FD00B106462879DD
:102F1000C04300F00400204305D10198022101F0D4
:102F2000BBFD00B106462879C04300F008002043ED
:102F300005D10098002101F03FFE00B10646287936
:102F4000C04300F01000204305D10098012101F09A
:102F500033FE00B106462879C04300F02000044348
:102F600004D10098022101F027FE00B916B101201A
:102F7000BDE8FE8F0020FBE74C4402582DE9F05FCE
:102F800004000F467ED0DFF83882D8F8000000F049
:102F90000F00B8420CD2D8F8001021F00F013943CD
:102FA000C8F80010D8F8000000F00F00B84269D14E
:102FB0002078844D40070AD52069296801F0700106
:102FC000884204D9296821F07001014329602078E2
:102FD0007C4E361D00070AD56069316801F070012A
:102FE000884204D9316821F07001014331602078B2
:102FF000C0060AD5A069316801F4E061884204D9AD
:10300000316821F4E061014331602078DFF8B4B128
:1030100080060BF1080B0CD5E1695846DBF800205F
:1030200002F07002914204D9026822F070020A4351
:103030000260207880070AD5E068296801F00F0156
:10304000884204D9296821F00F01014329602078C2
:10305000C0073ED05B49A2682868183920F4706028
:10306000104328606068022818D0032819D0096826
:10307000012819D0490700294ADADFF848A1AAF146
:10308000080A00E044E0DAF8002022F007020243D8
:10309000CAF80020FEF724FD814612E00968890382
:1030A000E9E709688901E6E7C905E4E7FEF718FDE5
:1030B000A0EB090141F28830814202D90320BDE82A
:1030C000F09F6168DAF8000000F03800B0EBC10F43
:1030D000ECD1207880070AD5E068296801F00F015B
:1030E000884204D2296821F00F0101432960D8F8F1
:1030F0000010404601F00F01B9420BD9016821F0E0
:103100000F0139430160006800F00F00B84201D0A0
:103110000120D4E7207840070AD52069296801F00A
:103120007001884204D2296821F0700101432960AE
:10313000207800070AD56069316801F07001884283
:1031400004D2316821F07001014331602078C0065B
:103150000AD5A069316801F4E061884204D231687F
:1031600021F4E06101433160207880060CD5E169EB
:103170005846DBF8002002F07002914204D2026847
:1031800022F070020A43026000F09AF80E492A68A1
:103190002B68C2F3032203F00F038A5CC95C02F0C0
:1031A0001F0201F01F01D040084A20FA01F111600E
:1031B0000749086007480068BDE8F05FFEF7A2BF56
:1031C0000020005218440258C07900081C00002456
:1031D000180000241000002470B5144C3F22026037
:1031E000124A24680832131D114D04F0070444608C
:1031F00016681C1D06F470668660166806F00F06D9
:10320000C660126802F0700202611A6802F0700271
:1032100042611A6802F4E0628261226802F0700280
:10322000C261286800F00F00086070BD10440258A9
:103230000020005230B500F043F80B4A0B490C4B0C
:1032400015681468C5F3032204F00F048A5C095D55
:1032500002F01F0201F01F01D040064A20FA01F1DE
:1032600019601060084630BD18440258C079000843
:103270001C0000241800002400B5FFF7DBFF0549FF
:103280000968054AC1F30211515C01F01F01C840F1
:1032900000BD00001C440258C079000800B5FFF7CB
:1032A000C9FF05490968054AC1F30221515C01F0D3
:1032B0001F01C84000BD00001C440258C07900082E
:1032C000454970B545480968434B103B11F0380239
:1032D00008D00111082A03D0102A0BD0182A0BD0CD
:1032E000084670BD19688906FBD51968C1F3C1018C
:1032F000C84070BD3A4870BD3749374D18310C1D74
:1033000024350A68096826682D6802F0030406F06F
:103310000102C1F30511C5F3CC0515FB02F200EE65
:10332000102AB8EE400AE9B32F4ADFED2E0AB7EEB5
:10333000001A6CB1DFED2D1A012C01D0022C43D004
:1033400002EE101A1068F8EE422A81EEA22A1EE060
:103350001C68A40611D51B6801EE901A1168C3F30E
:10336000C103F8EE612AD84001EE900AC1F30800CB
:10337000F8EE611A81EEA22A0BE001EE901ADFED61
:103380001C2A00BFF8EE611A106882EEA12AC0F371
:10339000080001EE900AF8EE611A40EE201A31EEB4
:1033A000810A00E015E022EE000A1068C0F3462012
:1033B000401C00EE900AF8EE600A80EE201ABCEE87
:1033C000C10A10EE100A70BD01EE901ADFED092A55
:1033D000D8E7002070BD0000104402580090D003D0
:1033E00000366E0100000039304402580024744A4F
:1033F0000024744C001BB74B2DE9F05F04007DD016
:10340000FF4F2078FE4D1837DFF8F493103DC007CA
:1034100048D0D9F80000396800F03800102815D0DD
:10342000182803D101F0030002280FD06068B0F51E
:10343000803F12D010B1B0F5A02F18D0286820F42A
:1034400080302860286820F4802009E02868800304
:1034500028D560680028D2D024E0286840F4803065
:103460002860606888B1FEF73BFB064609E02868E3
:1034700040F480202860F0E7FEF732FB801B6428D0
:103480006FD828688003F7D50CE0FEF729FB0646C5
:1034900005E000BFFEF724FB801B6428F0D82868F5
:1034A0008003F7D4207841F20308D54E0C3E800704
:1034B00069D5D9F80000396810F038000ED0182806
:1034C00001D188070AD0E06890B3296821F019017A
:1034D00001432960FEF704FB824631E0286840077B
:1034E00002D5E06800288AD0E168286820F0190039
:1034F00008432860FEF7F4FA824607E0DFE000BFE9
:10350000FEF7EEFAA0EB0A000228B9D828684007B7
:10351000F6D500BFFEF7DEFA40451BD820694028EB
:1035200012D0316821F47C3141EA003030602AE069
:1035300018E000BFFEF7D4FAA0EB0A0002289FD8DB
:1035400028684007F6D5E5E7306820F47C3040F481
:103550000030EBE7207C316821F0FE4141EA006059
:10356000E4E70DE1286820F001002860FEF7B8FAD2
:10357000824605E0FEF7B4FAA0EB0A0002288DD8D7
:1035800028684007F6D42078C0065DD5D9F8000039
:10359000DFF86CB2396800F03800ABF1040B082892
:1035A00010D0182803D101F0030001280AD0E069E7
:1035B0000028286838D040F080002860FEF790FA94
:1035C000824623E02868C00523D5E069802876D1AB
:1035D0001FE0206A202821D0316821F0F84141EA1B
:1035E0008060306030E000BF94F82010DBF80020ED
:1035F00022F07C5242EA0161CBF8001024E000BFC7
:10360000FEF76EFAA0EB0A00022898D82868C005D9
:10361000F6D5FEF75FFA4045E6D8DAE7306820F0E5
:10362000F84040F08040DCE720F080002860FEF7A2
:1036300057FA064605E000BFFEF752FA801B022843
:103640009DD82868C005F7D42078000729D56C4894
:103650006169643000298046016811D041F00101A0
:103660000160FEF73DFA064605E000BFFEF738FAB6
:10367000801B0228C9D8D8F800008007F6D510E0D2
:1036800021F001010160FEF72BFA064605E000BFBC
:10369000FEF726FA801B022872D8D8F800008007AF
:1036A000F6D42078800623D5A0690028286810D099
:1036B00040F480502860FEF713FA064605E036E134
:1036C000FEF70EFA801B02285AD828688004F7D526
:1036D0000EE020F480502860FEF702FA064604E06F
:1036E000FEF7FEF9801B02284AD828688004F7D428
:1036F000207840074FD5DFF80C81D8F8001041F44E
:103700008071C8F80010FEF7EBF9064605E000BF2F
:10371000FEF7E6F9801B642832D8D8F80000C0050F
:10372000F6D5374EA068603601280AD008B10528C2
:1037300013D0306820F001003060306820F00400C1
:1037400002E0306840F001003060A06841F2883A41
:1037500090B1FEF7C5F980460AE0306840F00400F9
:103760003060EEE7FEF7BCF9A0EB0801514507D841
:1037700030688007F6D50EE0FEF7B2F9804607E024
:1037800084E000BFFEF7ACF9A0EB080151457DD8FD
:1037900030688007F6D4606AB0B3DFF86480D9F887
:1037A000001008F120084FF6F87B08F10409C1F376
:1037B000C2010329A8F1040A69D00228286820F070
:1037C0008070286003D0FEF78BF9044684E0FEF792
:1037D00087F9064605E000BFFEF782F9801B022844
:1037E00077D828688001F7D4E26A40F2F33138686C
:1037F00054F8283F884340EA02101843386004E038
:103800001044025800480258B5E0217B4346228903
:103810004FF4FE0C208A4FF0FE474902267D521ECF
:10382000401EA1F50071C2F308088AB2761E0CEAA8
:10383000004042EA08020243504607EA06610A4392
:103840001A60DAF8002022F00102CAF80020D9F844
:103850000020266A22EA0B0242EAC602C9F80020CA
:10386000DAF80010A26921F00C011143CAF8001027
:103870000168E26921F0020111430160016841F42D
:1038800080310160016841F4003101E021E027E06E
:103890000160016841F480210160016841F001018B
:1038A0000160286840F080702860FEF719F904462E
:1038B00005E000BFFEF714F9001B022809D82868AC
:1038C0008001F7D557E000BFFEF70AF9001B022878
:1038D00002D90320BDE8F09F28688001F4D44AE0B3
:1038E00039680128D8F8000021D0A26A01F003034A
:1038F00093421CD1E26AC1F305118A4217D1216BB0
:10390000C0F30802491E8A4211D1616BC0F34622FE
:10391000491E91420BD1A16BC0F30642491E914250
:1039200005D1E16BC0F30660491E814201D0012040
:10393000D0E7A16C4E46D9F80000C0F3CC0081421C
:1039400019D0DAF80000554620F00100CAF800004E
:10395000FEF7C6F84FEA0007FEF7C2F8B842FBD000
:10396000A26C306820EA0B0040EAC2003060286890
:1039700040F0010028600020ACE770472DE9F041DD
:1039800004460068002102694369876894F88160F1
:1039900002EA03055FEA035C0AD5120708D58169CC
:1039A00041F400618161204600F03BFABDE8F081FE
:1039B00015F0600F08D1680706D5616F204688476B
:1039C000216F20468847012105F04100012805D1DB
:1039D000680703D4216F20468847012105F02200A3
:1039E000022806D1680704D4616F2046BDE8F04183
:1039F00008470029DAD128074FF0010859D5206877
:103A0000816941F0080181612068816941F01001FC
:103A100081612068816941F40061816120680169E8
:103A200021F0080101612068806810F4404F1ED029
:103A300021E0E0680F2806D92068616E006B0860FD
:103A4000606E001D0DE0616E0728206804D9008EAD
:103A50000880606E801C04E090F830000870606E92
:103A6000401C6066B4F86A00401EA4F86A00B4F80E
:103A70006A000028DDD1204601F034F984F8818005
:103A8000D4F8840018B12046FFF777FF8EE7052EA3
:103A900007D0042E09D0032E88D1204600F0C2F9A9
:103AA00084E7204600F0CAF980E7204600F0B8F924
:103AB0007CE715F4587FE9D068060AD5D4F884006D
:103AC00040F00400C4F884002068816941F040019E
:103AD0008161A8050AD5D4F8840040F00100C4F83B
:103AE00084002068816941F400718161E8050AD58C
:103AF000D4F8840040F00800C4F88400206881698C
:103B000041F480718161A8060AD5D4F8840040F0A0
:103B10008000C4F884002068816941F0200181613F
:103B2000D4F884000028B1D0206840F26B32C7F38B
:103B300081310368032923F00101016020680169D4
:103B400021EA0201016102D084F881809BE72068AC
:103B5000104D816821F440418160E06F50B10565EE
:103B6000E06FFCF7F1FF28B1D4F8840040F040008A
:103B7000C4F88400A06F002888D00565A06FFCF70A
:103B8000E3FF00288CD0D4F8840040F04000C4F853
:103B900084000BE7A14D00082DE9F047040029D06F
:103BA000594A4FF000092068584B594D9042C4F8CB
:103BB000289006D0984204D0A84202D0E1680F298C
:103BC00018D8E1684FF0010AE76B0831C9080AEB21
:103BD00057167143904205D0984203D0A84201D0B5
:103BE000082907D8904203D0984201D0A84204D1B6
:103BF000102902D90120BDE8F08794F8810020B98E
:103C0000204684F8809000F085F8022084F8810036
:103C10002068016821F0010101602068A1698268C3
:103C2000B1F1806F02F4F81110D16268B2F5800F23
:103C300001D01AB10AE0A26B22B107E0A26BB2F187
:103C4000805F03D1026842F48052026060684002E3
:103C500009D5E068072806D32068236D026822F49E
:103C600080721A4303E02068026822F480720260C6
:103C7000A66AE069E26B25683043E3680A431043B3
:103C80001843A860D4E90D02D4E90581636A256967
:103C90001843D4F820C00A43266810432843A56D72
:103CA000D4E90172D4E9123140EA080040EA0C007C
:103CB00038430843104318432843F060606868B9EC
:103CC0002068816821F4C05141F40061816020685E
:103CD000816821F4C06141F4806181602068016DD8
:103CE00021F0010101656068400206D52068626D1F
:103CF000C16821F000411143C160C4F8849084F888
:103D000081A0002077E7000000300140003800402B
:103D1000003C00402DE9F041B6B08046142130A8A7
:103D2000FCF782FBC0216846FCF77EFB3649D8F8D9
:103D30000000884264D18114002018900546CDE926
:103D400000106846FEF744FC08B1FCF7FAFE2F4865
:103D5000016841F480410160006800F480403590C2
:103D60002A480838016841F002010160016801F049
:103D700002013591016841F00801016000680224E8
:103D800030A900F008003590A003052681E8310035
:103D90001F48CDE93356FDF781FD30A9082081E8A1
:103DA00031001C48CDE93356FDF778FD1A4C40220E
:103DB0001A482821D70103152060C61461609002BB
:103DC000A260C4E903530421C4E9075004F12400AC
:103DD000032280E8260025632046C4E90567FDF735
:103DE00069FB08B1FCF7ADFEC8F878400022052158
:103DF000C4F838802420FEF739FA2420FEF728FA88
:103E000036B0BDE8F081000000380040E8440258B8
:103E100000040258000C02588C010024580402408F
:103E20007047704700680349884202D10249012067
:103E30000870704700380040080000247047704741
:103E40007047704710B5040003D094F83D0010B1DE
:103E500007E0012010BD002084F83C00204600F05F
:103E600022F8022084F83D002068211D01F0B2F8FC
:103E7000012084F8480084F83E0084F83F0084F86C
:103E8000400084F8410084F8420084F8430084F83C
:103E9000440084F8450084F8460084F8470084F81C
:103EA0003D00002010BD704790F83D10012901D061
:103EB00001207047174A022180F83D100168CB6845
:103EC00043F00103CB600068904214D0B0F1804F02
:103ED00011D0114988420ED0104988420BD01049A8
:103EE000884208D00F49884205D00F49884202D045
:103EF0000E49884207D181680D4A1140062906D033
:103F0000B1F5803F03D0016841F00101016000205C
:103F1000704700000000014000040040000800401D
:103F2000000C004000040140001800400040014027
:103F30000700010070472DE9F041044600680027A2
:103F4000C6680569A90713D5B10711D5FA1E026124
:103F500001212177206880698007204602D0FFF781
:103F6000E9FF04E000F08BF8204600F089F827779D
:103F7000680716D5700714D5226802206FF0040177
:103F8000116120772068806910F4407F204602D0BC
:103F9000FFF7D0FF04E000F072F8204600F070F860
:103FA0002777280715D5300713D5226804206FF02E
:103FB0000801116120772068C0698007204602D07F
:103FC000FFF7B8FF04E000F05AF8204600F058F878
:103FD0002777E80616D5F00614D5226808206FF07A
:103FE0001001116120772068C06910F4407F2046DD
:103FF00002D0FFF79FFF04E000F041F8204600F0F8
:104000003FF82777E80708D0F00706D021686FF05F
:1040100001000861204600F035F8280601D4A80404
:1040200008D5300606D521686FF402500861204695
:10403000FFF706FFE80508D5300606D521686FF4BE
:10404000807008612046FFF7FAFE680608D5700602
:1040500006D521686FF040000861204600F01CF88A
:10406000A8060AD5B00608D521686FF020000861BF
:104070002046BDE8F041FFF7E4BEBDE8F08170479F
:104080007047000000680349884201D1FEF704B878
:104090007047000000100040704730B590F8841061
:1040A000012918D0012280F884202421C0F888102A
:1040B0000022202401680B680D6823F0005325F0CE
:1040C00001050D60426601680B60C0F8884080F809
:1040D0008420104630BD022030BD70B5044690F8F3
:1040E000840001281DD0012284F884202420C4F8F3
:1040F000880020680568026822F0010202602068DA
:10410000826822F060620A438260204600F0CAFFA3
:104110002268202100201560C4F8881084F88400EB
:1041200070BD022070BD70B5044690F8840001286F
:104130001DD0012284F884202420C4F8880020683F
:104140000568026822F0010202602068826822F09D
:1041500060420A438260204600F0A4FF22682021CA
:1041600000201560C4F8881084F8840070BD022017
:1041700070BD10B5040003D0D4F8880010B107E07A
:10418000012010BD002084F88400204600F026F8AD
:104190002420C4F888002068016821F00101016032
:1041A000A06A10B1204600F09FFF204601F080F881
:1041B0000128E6D02068416821F4904141602068E0
:1041C000816821F02A0181602068016841F00101C5
:1041D00001602046BDE8104000F0EABF10B5B6B05F
:1041E0000446142130A8FCF71FF9C0216846FCF7EB
:1041F0001BF91949206888422BD100201F9001210A
:104200000446CDE900106846FEF7E2F908B1FCF774
:1042100098FC1248016841F010010160006800F04C
:10422000100035900D481038016841F0010101601F
:10423000006807224FF4C061329400F0010035900D
:104240000220CDE93010CDE93302054830A9FDF751
:1042500025FB36B010BD000000100140F0440258AC
:10426000000002582DE9F8430446D0F8880098462B
:1042700016460D46202802D00220BDE8F883A5B1DD
:104280009EB10021C4F890102120C4F88800183491
:10429000FDF726FC814654F8100CA687E6872027F8
:1042A000183CB0F5805F02D003E00120E5E720690B
:1042B00010B12E46002510E000260EE08021204699
:1042C00001F0CCF9C0B9DEB116F8010B21688862A3
:1042D000B4F85600401EA4F85600B4F856004B46F9
:1042E0004FF00002CDF800800028E7D14FF04001E8
:1042F000204601F0B3F948B1C4F888700320BCE748
:1043000035F8020B2168C0F30800E0E7C4F88870B4
:104310000020B2E7FEE701688A69D243920701D420
:1043200000228A6200688169C943C90703D0816994
:1043300041F00101816170472DE9F04704460068B2
:104340000026894617464FF0200835468169C90680
:1043500041D51021C1612FE0B9F1FF3F2CD0FDF70D
:10436000BFFBC11B494502D8B9F1000F24D1206819
:10437000426894F84210836902F48042DB431B04D4
:1043800015D4B2F5804F12D0202910D0416841F4E5
:1043900080414160FDF7A4FB074608E0FDF7A0FB64
:1043A000C01B192803D9012645F0200504E0206828
:1043B0008069C0438006F1D420688069C0438006CC
:1043C00002D5002EC8D003E016B92168C1F81C80C0
:1043D000012645F0040521688869C20505D54FF41A
:1043E0008072CA6145F00105012641050AD52168A0
:1043F00080054FF4806245F00805CA614FF0010660
:1044000002D40AE0800507D5206801264FF4007128
:1044100045F00205C16100E08EB12046FFF77BFF49
:1044200020680021074F43683B404360606C28438D
:10443000606484F8418084F8421084F8401030466B
:10444000BDE8F08700E800FE2DE9F8431746044672
:104450001548DAB2DDE908981E4600900023204690
:1044600000F056F842464946204600F0D3F8B8B965
:10447000012EFDB208D02068390A816242464946C1
:10448000204600F0C7F858B9206885620022402114
:104490004B462046CDF8008000F052F8002800D0AE
:1044A0000120BDE8F8830000002000802DE9F843DA
:1044B0000446164817461E46DAB20090C30220464C
:1044C000DDE9089800F024F842464946204600F00D
:1044D000A1F8B8B9012EFDB208D02068390A81626E
:1044E00042464946204600F095F858B92068856252
:1044F000002280214B462046CDF8008000F020F8B5
:10450000002800D00120BDE8F883000000200080D2
:1045100070B50068C1F3090141EA0241074D049CEE
:1045200019434FF480664268214306EA54532B43F3
:104530009A4321F000410A43426070BDFF63FF03CC
:104540002DE9F0411D4617460E460446DDF8188059
:1045500028E0424629462046FFF7EEFE10B1012032
:10456000BDE8F081681C1DD0FDF7BAFAA0EB080089
:10457000A84200D8B5B92068806936EA00000FD09B
:104580000020B8420ED1626C002084F84000202147
:1045900042F02002626484F8411084F84200DEE7B1
:1045A0000120EEE72068806936EA000004D0002090
:1045B000B842CED00020D3E70120F9E770B5164607
:1045C0000D4604461FE0324629462046FFF7B4FE5A
:1045D00008B1012070BDFDF783FA801BA84200D806
:1045E0008DB920688069C04380060CD5626C0020BC
:1045F00084F84000202142F02002626484F84110D7
:1046000084F84200E5E720688069C0438006DAD478
:10461000002070BD70B516460D46044621E03246B6
:1046200029462046FFF788FE08B1012070BD681CAE
:1046300017D0FDF755FA801BA84200D88DB9206825
:104640008069C04380070CD5626C002084F840006C
:10465000202142F02002626484F8411084F8420074
:10466000E3E720688069C0438007D8D4002070BD8C
:1046700070B504460F489FED0E0A0D462160227169
:1046800080ED010A80ED020A012000EB42010303E4
:1046900028460322FDF7E0FA08B1002070BD20464D
:1046A00000F032F8204600F03FF8012070BD000015
:1046B00000000000200000241FB502234FF48054A6
:1046C00003AA8DE81C00006801230A468721FDF734
:1046D00043FBBDF80C0004B040BA10BD032110B577
:1046E000FFF7EAFF00EE100A0648B8EE400AD0EDE8
:1046F000020A20EE200ABCEEC00A10EE100A80B2B8
:1047000010BD00002000002400214FF4004210B52D
:1047100000F028F8BDE810400120FDF7ADB80A46CA
:10472000052100F01FB800000B4A4FF4005170B58E
:10473000B3EE040A11800546F7EE000A82ED010A85
:10474000C2ED020A41F2FF74FFF7E9FF2146284655
:10475000BDE8704000F002B8200000240A460021A5
:10476000AFF300807FB5130A02258DF80C304FF4AB
:1047700080568DF80D2003AC8DE870000068012391
:104780000A468621FDF79AFB7FBD2DE9F0410428FA
:10479000074614D24FF000054FF0FF062C46204686
:1047A00000F024F810B16D1C2646EDB2641CE4B292
:1047B000042CF4D3012D16D1BE4211D013E005D143
:1047C000002000F013F870B1012006E005280AD19E
:1047D000012000F00BF830B1022000F007F810B112
:1047E0000120BDE8F0810020FBE70000084951F8F6
:1047F000302001EBC00110698A88104000D00120F0
:104800008979814201D10120704700207047000062
:10481000D0790008094808B5016841F0020101603B
:1048200000680022052100F0020000903B20FDF707
:104830001DFDBDE808403B20FDF70ABDD8440258E5
:10484000074A0021074810B501F0C4FC064C0021BE
:10485000034A24322060054801F0BCFC606010BDB2
:1048600048790008BB4D000800000024C94D00082D
:104870002DE9F04F87B014216846FBF7D5FD384885
:10488000016841F004010160016801F00401059133
:10489000016841F080010160016801F0800105912B
:1048A000016841F001010160016801F00101059119
:1048B000016841F002010160016801F00201059107
:1048C000016841F00801016000684FF40056DFF80C
:1048D0009490002200F00800314605904846FDF70C
:1048E000F3F8DFF884A0002230215046FDF7ECF801
:1048F000DFF878B07700002239465846FDF7E4F833
:104900004FF404481A4800224146FDF7DDF8002420
:104910000096012569464846CDE901540394FCF709
:10492000BDFF30200090CDE9015469465046039404
:10493000FCF7B4FF0226009703966946CDE90154BF
:104940005846FCF7ABFFCDF800806946039608484F
:10495000CDE90154FCF7A2FF07B0BDE8F08F0000DD
:10496000E0440258000802580000025800040258AF
:10497000000C02581348002110B5114C0123124AB3
:104980000460C0E90121C0E9033141618161C16175
:104990000162FDF701F908B1FCF7D3F809480021DD
:1049A000FDF7A4F808B1FCF7CCF806480021FDF7A4
:1049B000C9F8002803D0BDE81040FCF7C2B810BD0C
:1049C00000540040B0000024FFECC0102DE9F0417D
:1049D00015484FF48005134A07274FF4C0264FF0BF
:1049E000007C2C0180E8E4100021E300C0E90514FC
:1049F000C0E9073141625A008162C162C0E90D21FC
:104A0000C163016441648164C1640165416581657C
:104A1000FFF7C2F8002803D0BDE8F041FCF791B8D9
:104A2000BDE8F0810038004004010024184800214E
:104A300010B5164C0C224FF4E1330460C0E901318B
:104A4000C160C0E904128161C16101624162816299
:104A5000FFF78FFB08B1FCF774F80D480021FFF752
:104A600062FB08B1FCF76DF809480021FFF735FB40
:104A700008B1FCF766F80648FFF70FFB002803D0E3
:104A8000BDE81040FCF75DB810BD0000001001400B
:104A900004020024FEE7FEE72DE9F047454D0446F9
:104AA00089464FF0000A2868C04380070AD0414E6B
:104AB000283E306820F080603060FDF711F807462E
:104AC000B04608E00120BDE8F08700BFFDF708F818
:104AD000C01B022867D8D8F800000001F6D420686F
:104AE00029684FF4FE0721F47C313E0241EA003090
:104AF0002860207AA389B4F804C040022D4D2D49C6
:104B00005B1E227CACF1010C1035091DA0F5007074
:104B100080B2521ECCF3080C07EA034340EA0C00B3
:104B2000184306EA0262104328600868626920F0B0
:104B3000C000104308600A68A06922F02002024306
:104B40000A60281D0A6822F010020A6002684FF607
:104B5000F873E4699A4342EAC40202600868B9F152
:104B6000000F40F010020A6011D00868B9F1010F7F
:104B700011D040F400100860D8F80000444640F01E
:104B80008060C8F80000FCF7ABFF05460DE0086840
:104B900040F40020EFE740F48010ECE7FCF7A0FFC2
:104BA000401B022801D903208DE720680001F5D5BC
:104BB000504688E7284402582DE9F047454D044601
:104BC00089464FF0000A2868C04380070AD0414E4A
:104BD000283E306820F080503060FCF781FF0746A7
:104BE000B04608E00120BDE8F08700BFFCF778FF81
:104BF000C01B022867D8D8F800008000F6D42088AF
:104C000029684FF4FE0721F07C713E0241EA005012
:104C10002860207AA389B4F804C040022D4D2D49A4
:104C20005B1E227CACF1010C1835091DA0F500704B
:104C300080B2521ECCF3080C07EA034340EA0C0092
:104C4000184306EA0262104328600868626920F48B
:104C50004060104308600A68A06922F400720243B1
:104C60000A60281D0A6822F480720A6002684FF602
:104C7000F873E4699A4342EAC40202600868B9F131
:104C8000000F40F480720A6011D00868B9F1010F7A
:104C900011D040F080700860D8F80000444640F021
:104CA0008050C8F80000FCF71BFF05460DE00868BF
:104CB00040F48000EFE740F40000ECE7FCF710FF61
:104CC000401B022801D903208DE720688000F5D51C
:104CD000504688E7284402580148FEF74FBE0000BE
:104CE0000401002410B5026840F26F3351699469E1
:104CF00044F0080494610268946944F010049461DB
:104D00000268146824F001041460026814699C436A
:104D100014610268936823F44043936090F8812003
:104D2000042A0CD08A060AD5D0F8842042F08002EA
:104D3000C0F884200268936943F02003936190F8DF
:104D40008120032A0CD04A060AD5D0F8842042F0EC
:104D50000402C0F884200268936943F04003936121
:104D60008A050AD5D0F8842042F00102C0F88420D8
:104D70000268936943F400739361C9050AD5D0F8BA
:104D8000841041F00801C0F8841001688A6942F477
:104D900080728A610021A0F86210A0F86A1010BD2C
:104DA00010B5806B00210122A0F86A10A0F86210F3
:104DB00080F88120FEF7E1FD10BD01F069F90A20BD
:104DC00001F0CBF9F9E700002DED028B82B00E491E
:104DD00043226846FFF74CFC9FED0C8A4FF4FA74AF
:104DE0006846FFF77BFC00EE100A09A0F8EE400AC7
:104DF00080EE880AB7EEC00A53EC102B00F07AFC64
:104E0000204601F0AAF9EBE7B000002400007A4444
:104E1000696E6132313920706F7765722857293A8F
:104E2000252E35660D0A00004FF0E02010B5006910
:104E300002F0D6FB012803D0BDE8104002F0FAB81A
:104E400010BD000070B59CB04C216846FBF7ECFA31
:104E5000202113A8FBF7E8FA0220FDF739FA2149CF
:104E6000002421480A6822F001020A6009680168EA
:104E700041F440410160016801F440411B91016827
:104E80008904FCD50220099064230325CDE90C3068
:104E9000012100910FABC203019204260E960C2152
:104EA000CDE90A0583E8130068461294FEF7A4FAD8
:104EB00008B172B6FEE74020159408221A9003014B
:104EC000CDE916203F21CDE91803CDE913150221C4
:104ED00013A8FEF753F8002801D072B6FEE71CB005
:104EE00070BD00002C040058184802582C48F0B53A
:104EF0002C4A016841F470010160106800F00F0055
:104F0000072804D2106820F00F00C01D1060264949
:104F10000020254C10340B68244D43F001030B6036
:104F200020600B682B400B60136803F00F03072B06
:104F300004D9136823F00F03DB1D13601A4C1C4ABD
:104F400018341C4B261D371D2060174C1A4D283471
:104F50003060261D3860371D23603B1D35601C1DE9
:104F60003A60251D2E1D1860331D226028603260B6
:104F700018600A680C4B114C22F4802260330A60DE
:104F8000186020686FF30F00B0F1005F03D20C4986
:104F90000120C1F8080143F2D2000A490860F0BDBF
:104FA00088ED00E000200052004402587FEDF6EA50
:104FB00080020101000202020000FF010010005CFB
:104FC00000800051004000520148FEF7B4BF0000CD
:104FD000980200242DE9F0472A4B4FF0804A2A4DD1
:104FE00002689842294E2A4F2A4C09D0504507D0D2
:104FF000A84205D0B04203D0B84201D0A04205D1AA
:10500000D1F804C022F070024CEA0202DFF888C036
:10501000DFF888809842DFF888900FD050450DD097
:10502000A8420BD0B04209D0B84207D0A04205D068
:10503000604503D0404501D0484503D1CD6822F4F6
:1050400040722A434D6922F080022A43026098424E
:105050008A68C2620A68826207D0A04205D06045B1
:1050600003D0404501D0484501D1096901630121C0
:1050700041610169C90703D0016921F001010161A2
:10508000BDE8F08700000140000400400008004037
:10509000000C004000040140004001400044014079
:1050A0000048014030B5416EB9B101680D4B03F1C4
:1050B00008048A688968C2F34262490F5D5C615CDA
:1050C0002D01B5FBF1F1A0F86A10995CA25C090111
:1050D000B1FBF2F1A0F8681030BD0121A0F86A1010
:1050E000F8E70000B079000890F82810090706D505
:1050F0000168836B4A6822F400421A434A6090F8C0
:105100002810C90706D00168C36A4A6822F4003231
:105110001A434A6090F82810890706D50168036B86
:105120004A6822F480321A434A6090F828104907EE
:1051300006D50168436B4A6822F480221A434A600C
:1051400090F82810C90606D50168C36B8A6822F456
:1051500080521A438A6090F82810890606D50168A3
:10516000036C8A6822F400521A438A6090F828106F
:10517000490611D50168436C4A6822F480121A432B
:105180004A60416CB1F5801F06D10168836C4A68A2
:1051900022F4C0021A434A6090F82810090606D586
:1051A0000168C26C486820F40020104348607047D2
:1051B0002DE9F84300250446C0F89050FCF790FC18
:1051C0008046206820266FF07E470068000713D5D0
:1051D0000022434631042046009700F03FFA58B1C0
:1051E000216851E8000F20F0800041E80002002A09
:1051F000F6D1C4F8886021E020680068400722D515
:10520000002243464FF480012046009700F026FA22
:10521000C8B1206850E8001F21F4907140E80012E6
:10522000002AF6D12068083050E8001F21F0010163
:1052300040E80012002AF5D1C4F88C60032084F8FD
:105240008450BDE8F883C4F88860C4F88C60E566D3
:105250002567002084F88450F3E7000010B5026849
:1052600052E8001F21F4907142E80013002BF6D1A0
:105270000E4B0268083252E8001F194042E8001441
:10528000002CF6D1C16E012908D1026852E8001F36
:1052900021F0100142E80013002BF6D1002120225A
:1052A000C0F88C20C166416710BD0000FEFFFFEF13
:1052B0002DE9F04304468068D84E87B0D84B21686A
:1052C000D4E90427D4F81CC010430A68002547EA33
:1052D0000C073843324002430A602068E2684168A4
:1052E00021F44051114341602268A1699A4201D0E2
:1052F000206A01439768DFF82CC3CB4ECB4807EAFE
:105300000C070F4397602168676ACA6A22F00F0290
:105310003A43CA622268B2420ED1006800F03800F7
:10532000182873D047DCB8B3082879D010286FD17B
:1053300078E028287ED17BE0BD498A4209D1006807
:1053400000F00700062875D2DFE800F0546A6C6EA2
:105350007072B8498A4209D1006800F00700062837
:1053600068D2DFE800F0475D5F616365B2498A4259
:1053700009D1006800F0070006285BD2DFE800F0E2
:105380003A5052545658AD498A420BD1006800F049
:10539000070006284ED200E010E0DFE800F02B41C5
:1053A00043454749A6498A420AD1006800F03800BF
:1053B000182839D0B7DD2028BBD13CE001203AE0E5
:1053C000A0498A4209D1006800F00700062831D2BE
:1053D000DFE800F01026282A2C2E9B498A420BD1A8
:1053E000006800F00700062824D2DFE800F0031967
:1053F0001B1D1F2100201EE09A421BD18B48001D5F
:10540000006800F00700062814D202E00CE007E074
:1054100010E0DFE800F0030507090B0D02200AE0A9
:10542000042008E0082006E0102004E0202002E02C
:10543000402000E080208549DFF814829A42854AA6
:105440004FF400434FEA21174FF000064ED11028C9
:105450001AD006DC022809D004280BD008287CD1F9
:105460000DE020283ED0402877D13DE0FCF75AFFE0
:10547000014610E06846FCF767FF01990BE003A8BE
:10548000FDF704F8049906E01068800605D5106859
:10549000C0F3C100C140002970D0606A676838F865
:1054A000102007EB4703B1FBF2F0834255D8B0EB75
:1054B000073F52D8002308461946FAF76BFF024609
:1054C0007808130E120243EA012110183A4671417E
:1054D0000023FAF75FFF604AA0F5407191423CD883
:1054E00021688FE03946D8E71946D6E7D4F81CC0C2
:1054F0004FF6EF799C4546D1082819D005DC58B104
:1055000001280CD0042875D10DE0102815D02028D2
:1055100035D040286ED134E0FDF7AEFE01E0FDF756
:10552000BDFE014610E06846FCF70EFF01990BE056
:1055300003A8FCF7ABFF049906E01068800604D5C9
:105540001068C0F3C100C140C1B1636A606838F837
:105550001330B1FBF3F1490000E04BE001EB5001E7
:10556000B1FBF0F0A0F11001494543D84FF6F073BC
:105570002168C0F342021840104343E043E039463B
:10558000E3E71946E1E7082819D005DC58B10128FE
:105590000CD004282ED10DE0102815D020282BD0B7
:1055A000402827D12AE0FDF767FE01E0FDF776FEEF
:1055B000014610E06846FCF7C7FE01990BE003A81E
:1055C000FCF764FF049906E01068800604D51068B3
:1055D000C0F3C100C140B1B1636A606838F81330EC
:1055E000B1FBF3F101EB5001B1FBF0F0A0F11001C0
:1055F000494505D9012506E03946EDE71946EBE7AF
:10560000216880B2C8600120A4F86A00A4F868008C
:1056100028466667A66707B0BDE8F083F369FFCF49
:10562000000C0058FFF4FF110010014054440258D0
:105630000044004000480040004C00400050004042
:105640000014014000780040007C00400090D0032E
:105650009879000800440258FFFC0F002DE9F0473C
:10566000994617460D460446089E4FF0000833E061
:10567000701C31D0FCF734FAA0EB0900B04218D806
:10568000BEB120680168490726D5802D24D0402D61
:1056900022D0C169C94309070DD4082505622046F7
:1056A000FFF7DCFDC4F89050012084F88480BDE849
:1056B000F0870320FBE7C069C04300050CD42168D4
:1056C0004FF4006008622046FFF7C8FD2021C4F8AF
:1056D000901084F88480ECE72068C06935EA000007
:1056E00004D00020B842C3D00020E0E70120F9E751
:1056F000FEE700000FB4054B10B503A9044A029859
:1057000000F0EAF810BC5DF814FB0000C16000086E
:10571000AC000024090700284FEA116104DB00F106
:10572000E02080F80014704700F00F0000F1E02046
:1057300080F8141D704702E008C8121F08C1002A33
:10574000FAD170477047002001E001C1121F002A02
:10575000FBD170472DE9FF5F82B00021DDE9043005
:10576000020DDDF840B0034318D044F61050A2F209
:10577000FF3242431514119801281FD0A5EB0B00EE
:10578000401C5FEA000A4FF000064E4FDFF83891E8
:10579000B046504615D5CAF1000413E01198012413
:1057A0004AA3012801D16FEA0B010298119AC0E9BE
:1057B0000031C0E9024206B0BDE8F09FCBF1000025
:1057C000DFE704460021404A491842EB0450CDE986
:1057D000001012E0E00707D032463B4640464946FB
:1057E000FAF709FF8046894632463B46104619467D
:1057F000FAF701FF06460F466410002CEAD1DDE9F6
:105800000401DDE90023BAF1000F06DAFAF7F3FE2E
:1058100042464B46FAF7EFFE05E0FAF75EFF4246D6
:105820004B46FAF75AFF04460E460022284BFAF779
:10583000DBFF03D84FF0FF30014607E00022254B85
:1058400020463146FAF730FEFAF7B6FF102409E099
:10585000002C0ADB0A220023FAF79CFD039B30325E
:105860001A55641E50EA0102F2D1641C039AC4F175
:1058700011031444119A012A03D0012208430DD1C7
:105880000AE0084304D000204FF0110B119072E79A
:10589000A3EB0B056D1E0DE05B4504DD4FF0000230
:1058A00005F1010504E003DA4FF00002A5F101055E
:1058B000002AECD002981199C0E90231C0E90045F4
:1058C00079E70000000014400000F03F30000000C5
:1058D0000000F0430000E03F2DE9FF4F95B09A46ED
:1058E000884606460025EEE1252877D10024274684
:1058F000F94A0121039400E0044316F8013F203BDC
:1059000001FA03F01042F7D130782A2811D06FF055
:105910002F033078A0F13002092A16D8039A44F0F8
:10592000020402EB820203EB42021044761C039055
:10593000EFE758F8042B0392002A03DA504244F4AC
:105940000054039044F00204761C30782E2816D1BF
:1059500016F8010F44F004042A280DD06FF02F022E
:105960003078A0F13003092B09D807EB870302EB4D
:105970004303C718761CF3E758F8047B761C30788D
:105980006C280FD006DC4C2817D068280DD06A2868
:1059900014D104E0742810D07A280FD10DE044F41B
:1059A00000140AE044F4801401E044F440147278D6
:1059B000824202D104F58014761C761C3078662869
:1059C0000BD013DC582877D009DC002875D0452887
:1059D000F6D04628F4D047281AD193E118E063287E
:1059E00035D0642879D0652812D18BE1702873D026
:1059F00008DC6728F1D069286FD06E280DD06F2899
:105A000006D1ACE073282CD0752874D0782853D0F8
:105A10005246179990476D1C54E1C4F30250022876
:105A200009D003280DD0D8F8001004280DD00D603F
:105A300008F1040846E1D8F80010EA17C1E900525D
:105A4000F6E7D8F800100D80F2E70D70F0E718F8CF
:105A5000041B8DF8001000208DF80100EB4601209A
:105A600003E058F804BB4FF0FF3061074FF000012E
:105A700002D40DE009F101018946B9420FDA8145EE
:105A8000F8DB1BF809100029F4D108E009F1010145
:105A900089468142FADB1BF809100029F6D10398E8
:105AA0005346A0EB090721463846179A00F080FAC2
:105AB000284400EB090507E044E008E10DE01BF88D
:105AC000010B524617999047B9F10109F7D2534695
:105AD00021463846179AF2E039E00A21C4F302520F
